{
  "_format": "hh-sol-artifact-1",
  "contractName": "myTest",
  "sourceName": "contracts/myTest.sol",
  "abi": [
    {
      "inputs": [
        {
          "internalType": "uint256",
          "name": "_unlockedTime",
          "type": "uint256"
        }
      ],
      "stateMutability": "payable",
      "type": "constructor"
    },
    {
      "anonymous": false,
      "inputs": [
        {
          "indexed": false,
          "internalType": "uint256",
          "name": "amount",
          "type": "uint256"
        },
        {
          "indexed": false,
          "internalType": "uint256",
          "name": "when",
          "type": "uint256"
        }
      ],
      "name": "Withdrawl",
      "type": "event"
    },
    {
      "inputs": [],
      "name": "unlockedTime",
      "outputs": [
        {
          "internalType": "uint256",
          "name": "",
          "type": "uint256"
        }
      ],
      "stateMutability": "view",
      "type": "function"
    },
    {
      "inputs": [],
      "name": "withdraw",
      "outputs": [],
      "stateMutability": "nonpayable",
      "type": "function"
    }
  ],
  "bytecode": "0x608060405260405161052d38038061052d833981810160405281019061002591906100f0565b804210610067576040517f08c379a000000000000000000000000000000000000000000000000000000000815260040161005e906101a0565b60405180910390fd5b8060008190555033600160006101000a81548173ffffffffffffffffffffffffffffffffffffffff021916908373ffffffffffffffffffffffffffffffffffffffff160217905550506101c0565b600080fd5b6000819050919050565b6100cd816100ba565b81146100d857600080fd5b50565b6000815190506100ea816100c4565b92915050565b600060208284031215610106576101056100b5565b5b6000610114848285016100db565b91505092915050565b600082825260208201905092915050565b7f756e6c6f636b65642074696d652073686f756c6420626520696e20667574757260008201527f6500000000000000000000000000000000000000000000000000000000000000602082015250565b600061018a60218361011d565b91506101958261012e565b604082019050919050565b600060208201905081810360008301526101b98161017d565b9050919050565b61035e806101cf6000396000f3fe608060405234801561001057600080fd5b50600436106100365760003560e01c80630e5c6f421461003b5780633ccfd60b14610059575b600080fd5b610043610063565b60405161005091906101fb565b60405180910390f35b610061610069565b005b60005481565b4260005411156100ae576040517f08c379a00000000000000000000000000000000000000000000000000000000081526004016100a590610273565b60405180910390fd5b600160009054906101000a900473ffffffffffffffffffffffffffffffffffffffff1673ffffffffffffffffffffffffffffffffffffffff163373ffffffffffffffffffffffffffffffffffffffff161461013e576040517f08c379a0000000000000000000000000000000000000000000000000000000008152600401610135906102df565b60405180910390fd5b7f8c90f1854273170c1e829c713d0989ed4dcfedc62f89a508607eb1b002d3f64c474260405161016f9291906102ff565b60405180910390a1600160009054906101000a900473ffffffffffffffffffffffffffffffffffffffff1673ffffffffffffffffffffffffffffffffffffffff166108fc479081150290604051600060405180830381858888f193505050501580156101df573d6000803e3d6000fd5b50565b6000819050919050565b6101f5816101e2565b82525050565b600060208201905061021060008301846101ec565b92915050565b600082825260208201905092915050565b7f5761697420666f72207468652074696d6520746f20636f6d706c657465000000600082015250565b600061025d601d83610216565b915061026882610227565b602082019050919050565b6000602082019050818103600083015261028c81610250565b9050919050565b7f796f7520617265206e6f7420616e206f776e6572000000000000000000000000600082015250565b60006102c9601483610216565b91506102d482610293565b602082019050919050565b600060208201905081810360008301526102f8816102bc565b9050919050565b600060408201905061031460008301856101ec565b61032160208301846101ec565b939250505056fea2646970667358221220fe99917c8b17521f47c1198ea5e5b0d0a8a22c5ccefc3986e63460434ac6f10864736f6c634300081b0033",
  "linkReferences": {},
  "deployedLinkReferences": {}
}